:100C22007365743A006E6F773A006B697368657228
:020C320065005B
:10079F0041009E0042009C00504400780000000081
:1007AF004400980000000044008D0000000042004B
:1007BF008B000060640010000000000000000000CB
:1007CF00000000000000000000000000000000001A
:1007DF00000000000000000000000000000000000A
:1007EF0000000000000000000000000000000000FA
:1007FF0000000000000000000000000000000000EA
:10080F0000000000000000000000000000000000D9
:10081F00000000000000000000000041008A0042BC
:10082F000091000044008641F000004400823F33F5
:10083F00333344007E42A000004400040000000057
:10084F004400740000000044000000000000440059
:0A085F00090000000042000E003204
:10058C0090008AE0FD04F0ED25E02410F582E434BF
:10059C0000F583EEF0A3EFF090008AE06432600384
:1005AC000206BCF090000DF0900091F0A3F09000CA
:1005BC000DE0FFC3648094B2502FEF3395E0FEEF53
:1005CC0025E0FFEE33FE74102FF58274003EF583A8
:1005DC00E0FEA3E0FF900092E02FF0900091E03E4F
:1005EC00F090000DE004F080C5900091E0FEA3E0D7
:1005FC00FF7C007D321203A4AC06AD07E41202D1DD
:10060C0090009812041D7F9A7E997D997C3E9000F3
:10061C0078E0F8A3E0F9A3E0FAA3E0FB120126C00E
:10062C0004C005C006C0077433FFFEFD7C3F90007C
:10063C0098E0F8A3E0F9A3E0FAA3E0FB120126D0BE
:10064C0003D002D001D00012003590007812041DA6
:10065C00E4FFFE7DC87C42900078E0F8A3E0F9A3AB
:10066C00E0FAA3E0FB120126E4FBFA79807844124D
:10067C00022FE4FBFA79F078C11200357BEC7A5149
:10068C007938783F12022F90008D12041DE4FFFE82
:10069C007DC87C4290008DE0F8A3E0F9A3E0FAA3BA
:1006AC00E0FB12012612030A90008BEEF0A3EFF090
:0106BC00221B
:10042900900074E0FCA3E0FDA3E0FEA3E0FF9000D0
:100439000012041D900004E0FCA3E0FDA3E0FEA36C
:10044900E0FF90007412041D90009CE0FCA3E0FD05
:10045900EC1202D190008DE0F8A3E0F9A3E0FAA331
:10046900E0FB12003190000412041D900074E0F8C2
:10047900A3E0F9A3E0FAA3E0FB900004E0FCA3E009
:10048900FDA3E0FEA3E0FF120031900086E0F8A38F
:10049900E0F9A3E0FAA3E0FB120126C004C005C0FD
:1004A90006C007900004E0FCA3E0FDA3E0FEA3E082
:1004B900FF900082E0F8A3E0F9A3E0FAA3E0FB12C1
:1004C9000126D003D002D001D000120035C004C0EB
:1004D90005C006C007E4FFFEFD7C40900074E0F80B
:1004E900A3E0F9A3E0FAA3E0FB120126A804A905F9
:1004F900AA06AB07900004E0FCA3E0FDA3E0FEA37D
:10050900E0FF120031900000E0F8A3E0F9A3E0FA5F
:10051900A3E0FB12003590007EE0F8A3E0F9A3E028
:10052900FAA3E0FB120126D003D002D001D00012B9
:10053900003590000912041D90000EE0FCA3E0FDB7
:10054900EC1202D1900009E0F8A3E0F9A3E0FAA3C4
:10055900E0FB12003512030A90000EEEF0A3EFF053
:10056900D39464EE64809480400990000EE4F0A373
:100579007464F0C390000EE0648094805004E4F049
:03058900A3F022BA
:10091800120B577BFF7A0C7922E4FDFF120AAA7F9B
:100928000A7E00120BB77BFF7A0C7927E4FD7F0162
:10093800120AAA7F0A7E00120BB77BFF7A0C792C69
:100948007D08E4FF120AAA7F0A7E00120BB7900006
:100958009CE0FAA3E0FB7D047F011208747F0A7E05
:1009680000120BB7120B96120C34D2AFD2AD900016
:100978007DE004F0700690007CE004F09000AEE0AA
:10098800FEA3E0FF12058C90008BE0FAA3E0FB7D4C
:10099800047F021206BD7F017E00120BB7120429E4
:0209A80080CC01
:100BB700D3EF9400EE940040147D6E7C00ED1D7021
:0D0BC700011CED4C70F7EF1F70E61E80E37F
:010BD40022FE
:100BD5009000ABEFF0ED6003120C0EC2A5C2A400AD
:0E0BE5009000ABE0F58000D2A30000C2A32276
:10000E009000ABEFF0120C0ED2A5C2A4009000AB84
:0B001E00E0F58000D2A30000C2A32286
:100B57007D017F32120BD57D017F38120BD57D01C8
:100B67007F08120BD57D017F01120BD57D017F0612
:100B7700120BD57D017F0C120BD57F1E7E00120B49
:0F0B8700B77D017F01120BD57F2C7E01020BB7CA
:100C0E007580FFC2A5D2A400D2A30000E58020E724
:040C1E00FBC2A32250
:100AAA009000A0EBF0A3EAF0A3E9F090009FEDF02C
:100ABA00EF5401FEED540FF0AF06EF6006E044C0BC
:100ACA00F0800790009FE04480F09000A0E0FBA334
:100ADA00E0FAA3E0F912038B603190009FE0FF0473
:100AEA00F0E4FD120BD59000A0E0FBA3E0FAA3E02E
:100AFA00F912038BFF12000E7F017E00120BB790D2
:0C0B0A0000A1E475F0011203F980BF2285
:0808740090009FEAF0A3EBF0F5
:10087C00E49000A2F0EF5401600814700CED248099
:10088C008003ED24C09000A1F09000A1E0FFE4FDF6
:10089C00120BD590009FE0FAA3E0FB7C007D64FF77
:1008AC00AE021203A47C007D0A1203A4ED24309046
:1008BC0000A3F07C007D0AAF03AE021203A47C00FF
:1008CC007D0A1203A4ED2430A3F090009FE0FEA358
:1008DC00E0FF7C007D0A1203A4ED24309000A5F00B
:1008EC00E4A3F09000A2E024A3F582E43400F583A5
:1008FC00E060189000A2E0FF04F074A32FF582E4EE
:0B090C003400F583E0FF12000E80D8DD
:0109170022BD
:0806BD0090009FEAF0A3EBF0AE
:1006C500E49000A2F0EF5401600814700CED248052
:1006D5008003ED24C09000A1F09000A1E0FFE4FDAF
:1006E500120BD590009FE0FAA3E0FB7C277D10FF5D
:1006F500AE021203A47C007D0A1203A4ED243090FF
:1007050000A3F07C037DE8AF03AE021203A47C00D6
:100715007D0A1203A4ED2430A3F090009FA3E07C92
:10072500007D64FFAE021203A47C007D0A1203A4BF
:10073500ED24309000A5F0A3742EF07C007D0AAF67
:1007450003AE021203A47C007D0A1203A4ED24303B
:10075500A3F090009FE0FEA3E0FF7C007D0A12035A
:10076500A4ED24309000A8F0E4A3F09000A2E024CA
:10077500A3F582E43400F583E060189000A2E0FF61
:1007850004F074A32FF582E43400F583E0FF120032
:0A0795000E80D87F057E00020BB72E
:050869004200AC00009C
:100B9600D2B3D2B9C2BB758920758CB1758AE0D241
:100BA600A9D28C75985A758BFF758DFFD28ED2AFF0
:010BB600221C
:03000B00020A36B0
:100A3600C0E0C083C082C0D075D000C000C004C072
:100A460005C006C007C28C758CB1758AE09000ADF2
:100A5600E004F070069000ACE004F090000EE0FEBA
:100A6600A3E0FF9000ACE0FCA3E0FDC39FEE648032
:100A7600F8EC6480984004D2B38002C2B3C3ED940C
:100A860064EC6480948040079000ACE4F0A3F0D25C
:100A96008CD007D006D005D004D000D0D0D082D0DC
:040AA60083D0E032E7
:030000000209AA48
:0C09AA00787FE4F6D8FD75810F0209F19A
:05086E004200AE000095
:100BF300EF1FAA0670011E4A60107C137D88ED1D4D
:0A0C0300AA0470011C4A60E880F4A6
:010C0D0022C4
:100C3400759D01E4F5BDF5BE75BC887F02FE020B0F
:010C4400F3BC
:080003003099FDC2998F99228A
:03002B00020B16AF
:0B0B1600C0E0C083C082C0D075D008D2
:100B210075BC00AFBD7E00120003AFBE120003AF63
:100B3100BDADBE7C00EF7802C333CE33CED8F92DE4
:0D0B4100FFEE3C9000AEF0A3EFF075BC8815
:090B4E00D0D0D082D083D0E03277
:10002E00020376E86480F8E933E83360110460F087
:10003E00ED33EC337009E8FCE9FDEAFEEBFF220438
:10004E0060DED3EB9FEA9EE99DE8C2E78CF0C2F733
:10005E0095F0400CE8CCF8E9CDF9EACEFAEBCFFBFF
:10006E0012034185D0F05804700320D5B3E8047014
:10007E00075002B2D502038092D5EC0460F7E4CCAF
:10008E00C0E0C398F8603B94186008400DD0E0FBC8
:10009E00020358E4FBFAC9FC8028E830E406E4C900
:1000AE00FBE4CAFCE830E305E4C9CACBFCE854071C
:1000BE006010F8C3E913F9EA13FAEB13FBEC13FC27
:1000CE00D8F130F52FC3E49CFCEF9BFFEE9AFEEDCA
:1000DE0099FDD0E0FBEF4E4D4C701222DB03020374
:1000EE007DEC2CFCEF33FFEE33FEED33FDED30E710
:1000FE00EB020358EF2BFFEE3AFEED39FDD0E0FB9D
:10010E0050130BBB0003020380ED13FDEE13FEEF45
:08011E0013FFEC13FC0203586F
:10012600EC4D6011E8497017ED33EC3304600DE4D3
:10013600FCFFFEFD22E933E8330470F80203761271
:10014600034158046009E4CC248150062850090272
:10015600038028400302037DC0E0EB4A7044B98067
:1001660006D0E0FB02036CEF4E701CBD8008EBFF6F
:10017600EAFEE9FD80EBE98DF0A4FEE5F002020F50
:10018600E9CDF9EAFEEBFFEF89F0A4FCE5F0CE89B4
:10019600F0A42EFFE435F0CD89F0A42DFEE435F071
:1001A6008067EF4E7005BD80D780C3EF8BF0A4AC9F
:1001B600F0EE8BF0A42CFCE435F0F8EF8AF0A42CDA
:1001C600E5F038FCE433CB8DF0A42CFCE5F03BF8ED
:1001D600EE8AF0A42CFCE5F038F8E433CF89F0A4DD
:1001E6002CFCE5F038CF3400CE89F0A42FFFE5F0E3
:1001F6003EFEE433C98DF0A42EFEE5F039CD8AF03B
:10020600A42FFFE5F03EFEE43DFD33D0E0FB5007B2
:100216000BBB000F020380EC2CFCEF33FFEE33FE2A
:06022600ED33FD02035858
:10022C00020380EC5D046005E85904700302037658
:10023C00120341580460F6EC4860F2EC7004FDFEC9
:10024C00FF22C860DB2481C85009C39860025006A5
:10025C0002037D9850CAF582E9294B4A7005AB829E
:10026C0002036C75F0007C1A7880C3EF9BEE9AED5C
:10027C0099400DC3EF9BFFEE9AFEED99FDE842F01D
:10028C00DC23ACF0D0E0FFD0E0FED0E0FDAB822070
:10029C00E7101BEB60BAEC2CFCEF33FFEE33FEEDFA
:1002AC0033FD020358E803F830E705C0F075F000A1
:1002BC00EF2FFFEE33FEED33FD40B830E7C280AADE
:1002CC0075F020800E75F010800575F0087D007EAD
:1002DC00007F003392D530D50312040FEC3340105D
:1002EC00EF33FFEE33FEED33FDEC33FCD5F0ED22B6
:0E02FC00E5F0247EA2D513CC92E7CDCEFF22F2
:10030A00EDD2E7CD33EC3392D524814006E4FFFEEB
:10031A00FDFC22FCE4CFCECDCC24E0501174FF804A
:10032A00EDC3CC13CCCD13CDCE13CECF13CF0470E7
:07033A00F030D5DE02040FD4
:10034100E9D2E7C933E833F892D5EDD2E7CD33EC02
:0703510033FC5002B2D5227B
:10035800EC30E7100FBF000C0EBE00080DBD000406
:100368000BEB6014A2D5EB13FCED92E7FD2274FFB2
:10037800FCFDFEFF22E480F8A2D574FF13FC7D800B
:03038800E480EF1F
:1009B600020918E493A3F8E493A34003F68001F236
:1009C60008DFF48029E493A3F85407240CC8C33342
:1009D600C4540F4420C8834004F456800146F6DF11
:1009E600E4800B010204081020408090079FE47EFB
:1009F600019360BCA3FF543F30E509541FFEE49306
:100A0600A360010ECF54C025E060A840B8E493A3CC
:100A1600FAE493A3F8E493A3C8C582C8CAC583CAF7
:100A2600F0A3C8C582C8CAC583CADFE9DEE780BEAF
:010873000084
:10038B00BB010689828A83E0225002E722BBFE0270
:09039B00E32289828A83E49322A3
:1003A400BC000BBE0029EF8DF084FFADF022E4CC3D
:1003B400F875F008EF2FFFEE33FEEC33FCEE9DEC06
:1003C400984005FCEE9DFE0FD5F0E9E4CEFD22ED4C
:1003D400F8F5F0EE8420D21CFEADF075F008EF2F96
:1003E400FFED33FD4007985006D5F0F222C398FD87
:0503F4000FD5F0EA2224
:1003F900C5F0F8A3E028F0C5F0F8E582158270028F
:060409001583E038F0222B
:0E040F00C3E49FFFE49EFEE49DFDE49CFC22FE
:0C041D00ECF0A3EDF0A3EEF0A3EFF02252
:00000001FF
