:100F420042009400424400770000000044009000F8
:100F520000000044008A0000000042008800006097
:100F620064000F000000000000000000000000000C
:100F7200000000000000000000000000000000006F
:100F8200000000000000000000000000000000005F
:100F9200000000000000000000000000000000004F
:100FA200000000000000000000000000000000003F
:100FB200000000000000000000000000000000002F
:100FC200000000000000004100870042008E000087
:100FD20044008341F0000044007F3F0000004400D1
:100FE2007B42A000004400040000000044007300A3
:100FF200000000440000000000004400080000005F
:061002000042000D003267
:100D2F00900087E0FD04F0ED25E0240FF582E43418
:100D3F0000F583EEF0A3EFF0900087E064326003DC
:100D4F00020E5FF090000CF090008EF0A3F0900078
:100D5F000CE0FFC3648094B2502FEF3395E0FEEFA9
:100D6F0025E0FFEE33FE740F2FF58274003EF583FE
:100D7F00E0FEA3E0FF90008FE02FF090008EE03EAA
:100D8F00F090000CE004F080C590008EE0FEA3E030
:100D9F00FF7C007D32120B5DAC06AD07E4120AA397
:100DAF00900090120BC07F9A7E997D997C3E9000A7
:100DBF0077E0F8A3E0F9A3E0FAA3E0FB1208F8C08C
:100DCF0004C005C006C0077433FFFEFD7C3F9000D2
:100DDF0090E0F8A3E0F9A3E0FAA3E0FB1208F8D043
:100DEF0003D002D001D000120807900077120BC079
:100DFF00E4FFFE7DC87C42900077E0F8A3E0F9A302
:100E0F00E0FAA3E0FB1208F8E4FBFA7980784412C9
:100E1F000A01E4FBFA79F078C11208077BEC7A51EA
:100E2F007938783F120A0190008A120BC0E4FFFE56
:100E3F007DC87C4290008AE0F8A3E0F9A3E0FAA312
:100E4F00E0FB1208F8120ADC900088EEF0A3EFF036
:010E5F002270
:100BCC00900073E0FCA3E0FDA3E0FEA3E0FF900027
:100BDC0000120BC0900004E0FCA3E0FDA3E0FEA318
:100BEC00E0FF900073120BC0900094E0FCA3E0FDBA
:100BFC00EC120AA390008AE0F8A3E0F9A3E0FAA3B0
:100C0C00E0FB120803900004120BC0900073E0F894
:100C1C00A3E0F9A3E0FAA3E0FB900004E0FCA3E05E
:100C2C00FDA3E0FEA3E0FF120803900083E0F8A30D
:100C3C00E0F9A3E0FAA3E0FB1208F8C004C005C079
:100C4C0006C007900004E0FCA3E0FDA3E0FEA3E0D7
:100C5C00FF90007FE0F8A3E0F9A3E0FAA3E0FB1219
:100C6C0008F8D003D002D001D000120807C004C08D
:100C7C0005C006C007E4FFFEFD7C40900073E0F861
:100C8C00A3E0F9A3E0FAA3E0FB1208F8A804A90575
:100C9C00AA06AB07900004E0FCA3E0FDA3E0FEA3D2
:100CAC00E0FF120803900000E0F8A3E0F9A3E0FADB
:100CBC00A3E0FB12080790007BE0F8A3E0F9A3E0A7
:100CCC00FAA3E0FB1208F8D003D002D001D0001236
:100CDC000807900008120BC090000DE0FCA3E0FD8B
:100CEC00EC120AA3900008E0F8A3E0F9A3E0FAA341
:100CFC00E0FB120807120ADC90000DEEF0A3EFF0F7
:100D0C00D39464EE64809480400990000DE4F0A3C9
:100D1C007464F0C390000DE0648094805004E4F09F
:030D2C00A3F0220F
:1011B70012123A900094E0FAA3E0FB7D047F01123B
:1011C70010137F0A7E0012129A121279121320D27C
:1011D700AFD2AD9000A5E0FEA3E0FF120D2F900067
:1011E70088E0FAA3E0FB7D047F02120E60120BCCAD
:0211F70080E195
:10129A00D3EF9400EE940040147D6E7C00ED1D7037
:0D12AA00011CED4C70F7EF1F70E61E80E395
:0112B7002214
:1012B8009000A2EFF0ED600312130CC2A5C2A400C7
:0E12C8009000A2E0F58000D2A30000C2A32295
:1012D6009000A2EFF012130CD2A5C2A4009000A2B7
:0B12E600E0F58000D2A30000C2A322AC
:10123A007D017F321212B87D017F381212B87D010A
:10124A007F081212B87D017F011212B87D017F0654
:10125A001212B87D017F0C1212B87F1E7E00121284
:0F126A009A7D017F011212B87F2C7E0102129A29
:10130C007580FFC2A5D2A400D2A30000E58020E71F
:04131C00FBC2A3224B
:08101300900096EAF0A3EBF057
:10101B00E4900099F0EF5401600814700CED2480FB
:10102B008003ED24C0900098F0900098E0FFE4FD61
:10103B001212B8900096E0FAA3E0FB7C007D64FFEF
:10104B00AE02120B5D7C007D0A120B5DED2430901D
:10105B00009AF07C007D0AAF03AE02120B5D7C00A0
:10106B007D0A120B5DED2430A3F0900096E0FEA3F9
:10107B00E0FF7C007D0A120B5DED243090009CF0AC
:10108B00E4A3F0900099E0249AF582E43400F58310
:10109B00E06018900099E0FF04F0749A2FF582E459
:0B10AB003400F583E0FF1212D680D85D
:0110B6002217
:080E6000900096EAF0A3EBF00C
:100E6800E4900099F0EF5401600814700CED2480B0
:100E78008003ED24C0900098F0900098E0FFE4FD16
:100E88001212B8900096E0FAA3E0FB7C277D10FFD1
:100E9800AE02120B5D7C007D0A120B5DED243090D2
:100EA800009AF07C037DE8AF03AE02120B5D7C0074
:100EB8007D0A120B5DED2430A3F0900096A3E07C30
:100EC800007D64FFAE02120B5D7C007D0A120B5D93
:100ED800ED243090009CF0A3742EF07C007D0AAFC6
:100EE80003AE02120B5D7C007D0A120B5DED24300F
:100EF800A3F0900096E0FEA3E0FF7C007D0A120BB1
:100F08005DED243090009FF0E4A3F0900099E02478
:100F18009AF582E43400F583E06018900099E0FFC8
:100F280004F0749A2FF582E43400F583E0FF12127E
:0A0F3800D680D87F057E0002129AD1
:051008004200A30000FE
:10127900D2B3D2B9C2BB758920758CB1758AE0D257
:10128900A9D28C75985A758BFF758DFFD28ED2AF06
:011299002232
:03000B000211439C
:10114300C0E0C083C082C0D075D000C000C004C05E
:1011530005C006C007C28C758CB1758AE09000A4E7
:10116300E004F070069000A3E004F090000DE0FEB0
:10117300A3E0FF9000A3E0FCA3E0FDC39FEE648027
:10118300F8EC6480984004D2B38002C2B3C3ED94F8
:1011930064EC6480948040079000A3E4F0A3F0D251
:1011A3008CD007D006D005D004D000D0D0D082D0C8
:0411B30083D0E032D3
:030000000210B734
:0C10B700787FE4F6D8FD75810F0210FE72
:05100D004200A50000F7
:1012F100EF1FAA0670011E4A60107C137D88ED1D48
:0A130100AA0470011C4A60E880F4A1
:01130B0022BF
:10132000759D01E4F5BDF5BE75BC887F02FE021215
:01133000F1CB
:081331003099FDC2998F992249
:03002B000211F9C6
:0B11F900C0E0C083C082C0D075D008E9
:1012040075BC00AFBD7E00121331AFBE121331AFF7
:10121400BDADBE7C00EF7802C333CE33CED8F92DFA
:0D122400FFEE3C9000A5F0A3EFF075BC8834
:09123100D0D0D082D083D0E0328D
:10080000020B48E86480F8E933E83360110460F0D3
:10081000ED33EC337009E8FCE9FDEAFEEBFF22045E
:1008200060DED3EB9FEA9EE99DE8C2E78CF0C2F759
:1008300095F0400CE8CCF8E9CDF9EACEFAEBCFFB25
:10084000120B1385D0F05804700320D5B3E8047060
:10085000075002B2D5020B5292D5EC0460F7E4CCFB
:10086000C0E0C398F8603B94186008400DD0E0FBEE
:10087000020B2AE4FBFAC9FC8028E830E406E4C94C
:10088000FBE4CAFCE830E305E4C9CACBFCE8540742
:100890006010F8C3E913F9EA13FAEB13FBEC13FC4D
:1008A000D8F130F52FC3E49CFCEF9BFFEE9AFEEDF0
:1008B00099FDD0E0FBEF4E4D4C701222DB03020B92
:1008C0004FEC2CFCEF33FFEE33FEED33FDED30E764
:1008D000EB020B2AEF2BFFEE3AFEED39FDD0E0FBE9
:1008E00050130BBB0003020B52ED13FDEE13FEEF92
:0808F00013FFEC13FC020B2ABC
:1008F800EC4D6011E8497017ED33EC3304600DE4FA
:10090800FCFFFEFD22E933E8330470F8020B4812BD
:100918000B1358046009E4CC2481500628500902BE
:100928000B52284003020B4FC0E0EB4A7044B980D9
:1009380006D0E0FB020B3EEF4E701CBD8008EBFFBB
:10094800EAFEE9FD80EBE98DF0A4FEE5F00209E19D
:10095800E9CDF9EAFEEBFFEF89F0A4FCE5F0CE89DA
:10096800F0A42EFFE435F0CD89F0A42DFEE435F097
:100978008067EF4E7005BD80D780C3EF8BF0A4ACC5
:10098800F0EE8BF0A42CFCE435F0F8EF8AF0A42C00
:10099800E5F038FCE433CB8DF0A42CFCE5F03BF813
:1009A800EE8AF0A42CFCE5F038F8E433CF89F0A403
:1009B8002CFCE5F038CF3400CE89F0A42FFFE5F009
:1009C8003EFEE433C98DF0A42EFEE5F039CD8AF061
:1009D800A42FFFE5F03EFEE43DFD33D0E0FB5007D9
:1009E8000BBB000F020B52EC2CFCEF33FFEE33FE77
:0609F800ED33FD020B2AA5
:1009FE00020B52EC5D046005E859047003020B48CB
:100A0E00120B13580460F6EC4860F2EC7004FDFE15
:100A1E00FF22C860DB2481C85009C39860025006CB
:100A2E00020B4F9850CAF582E9294B4A7005AB82EA
:100A3E00020B3E75F0007C1A7880C3EF9BEE9AEDA8
:100A4E0099400DC3EF9BFFEE9AFEED99FDE842F043
:100A5E00DC23ACF0D0E0FFD0E0FED0E0FDAB822096
:100A6E00E7101BEB60BAEC2CFCEF33FFEE33FEED20
:100A7E0033FD020B2AE803F830E705C0F075F000ED
:100A8E00EF2FFFEE33FEED33FD40B830E7C280AA04
:100A9E0075F020800E75F010800575F0087D007ED3
:100AAE00007F003392D530D503120BB2EC334010D9
:100ABE00EF33FFEE33FEED33FDEC33FCD5F0ED22DC
:0E0ACE00E5F0247EA2D513CC92E7CDCEFF2218
:100ADC00EDD2E7CD33EC3392D524814006E4FFFE12
:100AEC00FDFC22FCE4CFCECDCC24E0501174FF8071
:100AFC00EDC3CC13CCCD13CDCE13CECF13CF04700E
:070B0C00F030D5DE020BB250
:100B1300E9D2E7C933E833F892D5EDD2E7CD33EC28
:070B230033FC5002B2D522A1
:100B2A00EC30E7100FBF000C0EBE00080DBD00042C
:100B3A000BEB6014A2D5EB13FCED92E7FD2274FFD8
:100B4A00FCFDFEFF22E480F8A2D574FF13FC7D8031
:030B5A00E480EF45
:1010C3000211B7E493A3F8E493A34003F68001F27B
:1010D30008DFF48029E493A3F85407240CC8C3332E
:1010E300C4540F4420C8834004F456800146F6DFFD
:1010F300E4800B0102040810204080900F42E47E3C
:10110300019360BCA3FF543F30E509541FFEE493F1
:10111300A360010ECF54C025E060A840B8E493A3B8
:10112300FAE493A3F8E493A3C8C582C8CAC583CAE3
:10113300F0A3C8C582C8CAC583CADFE9DEE780BE9B
:0110120000DD
:100B5D00BC000BBE0029EF8DF084FFADF022E4CC7C
:100B6D00F875F008EF2FFFEE33FEEC33FCEE9DEC45
:100B7D00984005FCEE9DFE0FD5F0E9E4CEFD22ED8B
:100B8D00F8F5F0EE8420D21CFEADF075F008EF2FD5
:100B9D00FFED33FD4007985006D5F0F222C398FDC6
:050BAD000FD5F0EA2263
:0E0BB200C3E49FFFE49EFEE49DFDE49CFC2254
:0C0BC000ECF0A3EDF0A3EEF0A3EFF022A8
:00000001FF
